{
  "contractName": "ERC721",
  "abi": [
    {
      "anonymous": false,
      "inputs": [
        {
          "indexed": false,
          "internalType": "address",
          "name": "from",
          "type": "address"
        },
        {
          "indexed": false,
          "internalType": "address",
          "name": "to",
          "type": "address"
        },
        {
          "indexed": false,
          "internalType": "uint256",
          "name": "tokenId",
          "type": "uint256"
        }
      ],
      "name": "Transfer",
      "type": "event"
    },
    {
      "inputs": [
        {
          "internalType": "address",
          "name": "_owner",
          "type": "address"
        }
      ],
      "name": "balanceOf",
      "outputs": [
        {
          "internalType": "uint256",
          "name": "",
          "type": "uint256"
        }
      ],
      "stateMutability": "view",
      "type": "function"
    },
    {
      "inputs": [
        {
          "internalType": "uint256",
          "name": "_tokenId",
          "type": "uint256"
        }
      ],
      "name": "ownerOf",
      "outputs": [
        {
          "internalType": "address",
          "name": "",
          "type": "address"
        }
      ],
      "stateMutability": "view",
      "type": "function"
    }
  ],
  "bytecode": "0x608060405234801561001057600080fd5b50610424806100206000396000f3fe608060405234801561001057600080fd5b50600436106100365760003560e01c80636352211e1461003b57806370a082311461006b575b600080fd5b6100556004803603810190610050919061023f565b61009b565b60405161006291906102ad565b60405180910390f35b610085600480360381019061008091906102f4565b61014c565b6040516100929190610330565b60405180910390f35b60008060008084815260200190815260200160002060009054906101000a900473ffffffffffffffffffffffffffffffffffffffff169050600073ffffffffffffffffffffffffffffffffffffffff168173ffffffffffffffffffffffffffffffffffffffff161415610143576040517f08c379a000000000000000000000000000000000000000000000000000000000815260040161013a906103ce565b60405180910390fd5b80915050919050565b60008073ffffffffffffffffffffffffffffffffffffffff168273ffffffffffffffffffffffffffffffffffffffff1614156101bd576040517f08c379a00000000000000000000000000000000000000000000000000000000081526004016101b4906103ce565b60405180910390fd5b600160008373ffffffffffffffffffffffffffffffffffffffff1673ffffffffffffffffffffffffffffffffffffffff168152602001908152602001600020549050919050565b600080fd5b6000819050919050565b61021c81610209565b811461022757600080fd5b50565b60008135905061023981610213565b92915050565b60006020828403121561025557610254610204565b5b60006102638482850161022a565b91505092915050565b600073ffffffffffffffffffffffffffffffffffffffff82169050919050565b60006102978261026c565b9050919050565b6102a78161028c565b82525050565b60006020820190506102c2600083018461029e565b92915050565b6102d18161028c565b81146102dc57600080fd5b50565b6000813590506102ee816102c8565b92915050565b60006020828403121561030a57610309610204565b5b6000610318848285016102df565b91505092915050565b61032a81610209565b82525050565b60006020820190506103456000830184610321565b92915050565b600082825260208201905092915050565b7f6f776e657220717565727920666f72206e6f6e2d6578697374656e7420746f6b60008201527f656e000000000000000000000000000000000000000000000000000000000000602082015250565b60006103b860228361034b565b91506103c38261035c565b604082019050919050565b600060208201905081810360008301526103e7816103ab565b905091905056fea26469706673582212207610b8c464b00b77dd01fe4fb323bba3498b60da700391e421b3d95c0576771d64736f6c634300080b0033",
  "immutableReferences": {},
  "source": "// SPDX-License-Identifier: MIT\npragma solidity ^0.8.0;\n\n/*\nbuilding the minting function:\na. nft to point to an address\nb. keep track of the token ids\nc. keep track of token owner addresses to token ids\nd. keep track of how many tokens an owner address has\ne. create an event that emits a transfer log - contract address, \n    Where it is being minted to, _id.. \n*/\n\n\ncontract ERC721 {\n    // creates a log of minting tokens\n    event Transfer(\n    address from,\n    address to, \n    uint256 tokenId); \n\n    // mapping in solidity create a hash table of keypair value \n    mapping(uint256 => address) private _tokenOwner;\n\n    // mapping from owner to number of owned tokens\n    mapping(address => uint256) private _OwnedTokensCount;\n\n    // @notice Cout all NFTs assigned to an owner\n    // @dev NFTs assigned to the zero address are considered invalid\n    // function throws for queries about the zero address.\n    // @param _owner An address for whom to query the balance\n    // @return the number of NFTs owned by '_owner', possibly zero\n\n    function balanceOf(address _owner) public view returns(uint256) {\n        require(_owner != address(0), 'owner query for non-existent token');\n        return _OwnedTokensCount[_owner];\n    }\n\n        /// @notice Find the owner of an NFT\n    /// @dev NFTs assigned to zero address are considered invalid, and queries\n    ///  about them do throw.\n    /// @param _tokenId The identifier for an NFT\n    /// @return The address of the owner of the NFT\n    \n    function ownerOf(uint256 _tokenId) external view returns (address) {\n        address owner = _tokenOwner[_tokenId];\n        require(owner != address(0), 'owner query for non-existent token');\n        return owner;\n        \n    }\n\n\n    function _exists(uint256 tokenId) internal view returns(bool){\n        // setting the address of the nft ownert to check mapping\n        // of the address from tokenOwner at the tokenId\n        address owner = _tokenOwner[tokenId];\n        // returns owner with a valid address that's not zero\n        return owner != address(0);\n    }\n\n    function _mint(address to, uint256 tokenId) internal virtual {\n        // requires that the address isn't zero\n        require(to != address(0), 'ERC721: minting to the zero address');\n        // requires that the token doesn't already exist\n        require(!_exists(tokenId), 'ERC721: token aleady minted');\n        // adding a new address with a token id for minting\n        _tokenOwner[tokenId] = to;\n        // mapping address of the tokenCount on with each address minting + 1 to the count.\n        _OwnedTokensCount[to] += 1;\n\n        emit Transfer(address(0), to, tokenId);\n    }\n\n}",
  "sourcePath": "/home/rtonycloud/Documents/blockchain/nft-kryptobirdz/src/contracts/ERC721.sol",
  "compiler": {
    "name": "solc",
    "version": "0.8.11+commit.d7f03943.Emscripten.clang"
  },
  "schemaVersion": "3.4.3",
  "updatedAt": "2022-01-15T00:54:12.081Z",
  "devdoc": {
    "kind": "dev",
    "methods": {
      "ownerOf(uint256)": {
        "details": "NFTs assigned to zero address are considered invalid, and queries  about them do throw.",
        "params": {
          "_tokenId": "The identifier for an NFT"
        },
        "returns": {
          "_0": "The address of the owner of the NFT"
        }
      }
    },
    "version": 1
  },
  "userdoc": {
    "kind": "user",
    "methods": {
      "ownerOf(uint256)": {
        "notice": "Find the owner of an NFT"
      }
    },
    "version": 1
  }
}