{
  "contractName": "ERC721Enumerable",
  "abi": [
    {
      "inputs": [],
      "stateMutability": "nonpayable",
      "type": "constructor"
    },
    {
      "anonymous": false,
      "inputs": [
        {
          "indexed": true,
          "internalType": "address",
          "name": "_owner",
          "type": "address"
        },
        {
          "indexed": true,
          "internalType": "address",
          "name": "_approved",
          "type": "address"
        },
        {
          "indexed": true,
          "internalType": "uint256",
          "name": "_tokenId",
          "type": "uint256"
        }
      ],
      "name": "Approval",
      "type": "event"
    },
    {
      "anonymous": false,
      "inputs": [
        {
          "indexed": true,
          "internalType": "address",
          "name": "_from",
          "type": "address"
        },
        {
          "indexed": true,
          "internalType": "address",
          "name": "_to",
          "type": "address"
        },
        {
          "indexed": true,
          "internalType": "uint256",
          "name": "_tokenId",
          "type": "uint256"
        }
      ],
      "name": "Transfer",
      "type": "event"
    },
    {
      "inputs": [
        {
          "internalType": "address",
          "name": "_to",
          "type": "address"
        },
        {
          "internalType": "uint256",
          "name": "tokenId",
          "type": "uint256"
        }
      ],
      "name": "approve",
      "outputs": [],
      "stateMutability": "nonpayable",
      "type": "function"
    },
    {
      "inputs": [
        {
          "internalType": "address",
          "name": "_owner",
          "type": "address"
        }
      ],
      "name": "balanceOf",
      "outputs": [
        {
          "internalType": "uint256",
          "name": "",
          "type": "uint256"
        }
      ],
      "stateMutability": "view",
      "type": "function"
    },
    {
      "inputs": [
        {
          "internalType": "uint256",
          "name": "_tokenId",
          "type": "uint256"
        }
      ],
      "name": "ownerOf",
      "outputs": [
        {
          "internalType": "address",
          "name": "",
          "type": "address"
        }
      ],
      "stateMutability": "view",
      "type": "function"
    },
    {
      "inputs": [
        {
          "internalType": "bytes4",
          "name": "interfaceID",
          "type": "bytes4"
        }
      ],
      "name": "supportsInterface",
      "outputs": [
        {
          "internalType": "bool",
          "name": "",
          "type": "bool"
        }
      ],
      "stateMutability": "view",
      "type": "function"
    },
    {
      "inputs": [
        {
          "internalType": "address",
          "name": "_from",
          "type": "address"
        },
        {
          "internalType": "address",
          "name": "_to",
          "type": "address"
        },
        {
          "internalType": "uint256",
          "name": "_tokenId",
          "type": "uint256"
        }
      ],
      "name": "transferFrom",
      "outputs": [],
      "stateMutability": "nonpayable",
      "type": "function"
    },
    {
      "inputs": [
        {
          "internalType": "uint256",
          "name": "index",
          "type": "uint256"
        }
      ],
      "name": "tokenByIndex",
      "outputs": [
        {
          "internalType": "uint256",
          "name": "",
          "type": "uint256"
        }
      ],
      "stateMutability": "view",
      "type": "function"
    },
    {
      "inputs": [
        {
          "internalType": "address",
          "name": "owner",
          "type": "address"
        },
        {
          "internalType": "uint256",
          "name": "index",
          "type": "uint256"
        }
      ],
      "name": "tokenOfOwnerByIndex",
      "outputs": [
        {
          "internalType": "uint256",
          "name": "",
          "type": "uint256"
        }
      ],
      "stateMutability": "view",
      "type": "function"
    },
    {
      "inputs": [],
      "name": "totalSupply",
      "outputs": [
        {
          "internalType": "uint256",
          "name": "",
          "type": "uint256"
        }
      ],
      "stateMutability": "view",
      "type": "function"
    }
  ],
  "bytecode": "0x60806040523480156200001157600080fd5b50620000437f01ffc9a7a5cef8baa21ed3c5c0d7e23accb804b619e9333b597f47a0d84076e26200013360201b60201c565b620000b87f22c82707ba960a14c7592ffb6b8cfaa073fed0048a84cc7fa41f6b5bd8e7f2e47f3a6eb71757dfc6e784c1459d26270140c2c147d95ca985c80026fc5301c3eca17f8a7e378434598edc36d108689a030cbc9d7d465de4f74c71bae1028eed6a881b18186200013360201b60201c565b6200012d7f8230223f691b981717299fae9549350a0d894555723531f02108b1f522c1a7977f6da5e1284143cdd2d15038a59bde3be031250f00291d64494c12d967b3a4e0c37fc53637662700e6c65104059db8bba34439e0c32483ab7c34e3ccae52c739549518186200013360201b60201c565b6200028e565b63ffffffff60e01b817bffffffffffffffffffffffffffffffffffffffffffffffffffffffff191614156200019f576040517f08c379a000000000000000000000000000000000000000000000000000000000815260040162000196906200026c565b60405180910390fd5b6001600080837bffffffffffffffffffffffffffffffffffffffffffffffffffffffff19167bffffffffffffffffffffffffffffffffffffffffffffffffffffffff1916815260200190815260200160002060006101000a81548160ff02191690831515021790555050565b600082825260208201905092915050565b7f696e76616c696420696e74657266616365207265717565737400000000000000600082015250565b6000620002546019836200020b565b915062000261826200021c565b602082019050919050565b60006020820190508181036000830152620002878162000245565b9050919050565b6112bc806200029e6000396000f3fe608060405234801561001057600080fd5b50600436106100885760003560e01c80632f745c591161005b5780632f745c59146101135780634f6ccce7146101435780636352211e1461017357806370a08231146101a357610088565b806301ffc9a71461008d578063095ea7b3146100bd57806318160ddd146100d957806323b872dd146100f7575b600080fd5b6100a760048036038101906100a29190610acb565b6101d3565b6040516100b49190610b13565b60405180910390f35b6100d760048036038101906100d29190610bc2565b61023a565b005b6100e16103d6565b6040516100ee9190610c11565b60405180910390f35b610111600480360381019061010c9190610c2c565b6103e3565b005b61012d60048036038101906101289190610bc2565b610406565b60405161013a9190610c11565b60405180910390f35b61015d60048036038101906101589190610c7f565b6104b6565b60405161016a9190610c11565b60405180910390f35b61018d60048036038101906101889190610c7f565b610527565b60405161019a9190610cbb565b60405180910390f35b6101bd60048036038101906101b89190610cd6565b6105d9565b6040516101ca9190610c11565b60405180910390f35b6000806000837bffffffffffffffffffffffffffffffffffffffffffffffffffffffff19167bffffffffffffffffffffffffffffffffffffffffffffffffffffffff1916815260200190815260200160002060009054906101000a900460ff169050919050565b600061024582610527565b90508073ffffffffffffffffffffffffffffffffffffffff168373ffffffffffffffffffffffffffffffffffffffff1614156102b6576040517f08c379a00000000000000000000000000000000000000000000000000000000081526004016102ad90610d86565b60405180910390fd5b8073ffffffffffffffffffffffffffffffffffffffff163373ffffffffffffffffffffffffffffffffffffffff1614610324576040517f08c379a000000000000000000000000000000000000000000000000000000000815260040161031b90610e18565b60405180910390fd5b826003600084815260200190815260200160002060006101000a81548173ffffffffffffffffffffffffffffffffffffffff021916908373ffffffffffffffffffffffffffffffffffffffff160217905550818373ffffffffffffffffffffffffffffffffffffffff168273ffffffffffffffffffffffffffffffffffffffff167f8c5be1e5ebec7d5bd14f71427d1e84f3dd0314c0f7b2291e5b200ac8c7c3b92560405160405180910390a4505050565b6000600480549050905090565b6103ed3382610698565b6103f657600080fd5b610401838383610727565b505050565b6000610411836105d9565b8210610452576040517f08c379a000000000000000000000000000000000000000000000000000000000815260040161044990610e84565b60405180910390fd5b600660008473ffffffffffffffffffffffffffffffffffffffff1673ffffffffffffffffffffffffffffffffffffffff16815260200190815260200160002082815481106104a3576104a2610ea4565b5b9060005260206000200154905092915050565b60006104c06103d6565b8210610501576040517f08c379a00000000000000000000000000000000000000000000000000000000081526004016104f890610f1f565b60405180910390fd5b6004828154811061051557610514610ea4565b5b90600052602060002001549050919050565b6000806001600084815260200190815260200160002060009054906101000a900473ffffffffffffffffffffffffffffffffffffffff169050600073ffffffffffffffffffffffffffffffffffffffff168173ffffffffffffffffffffffffffffffffffffffff1614156105d0576040517f08c379a00000000000000000000000000000000000000000000000000000000081526004016105c790610fb1565b60405180910390fd5b80915050919050565b60008073ffffffffffffffffffffffffffffffffffffffff168273ffffffffffffffffffffffffffffffffffffffff16141561064a576040517f08c379a000000000000000000000000000000000000000000000000000000000815260040161064190610fb1565b60405180910390fd5b610691600260008473ffffffffffffffffffffffffffffffffffffffff1673ffffffffffffffffffffffffffffffffffffffff16815260200190815260200160002061094d565b9050919050565b60006106a38261095b565b6106e2576040517f08c379a00000000000000000000000000000000000000000000000000000000081526004016106d99061101d565b60405180910390fd5b60006106ed83610527565b90508073ffffffffffffffffffffffffffffffffffffffff168473ffffffffffffffffffffffffffffffffffffffff161491505092915050565b600073ffffffffffffffffffffffffffffffffffffffff168273ffffffffffffffffffffffffffffffffffffffff161415610797576040517f08c379a000000000000000000000000000000000000000000000000000000000815260040161078e906110af565b60405180910390fd5b8273ffffffffffffffffffffffffffffffffffffffff166107b782610527565b73ffffffffffffffffffffffffffffffffffffffff161461080d576040517f08c379a000000000000000000000000000000000000000000000000000000000815260040161080490611141565b60405180910390fd5b610854600260008573ffffffffffffffffffffffffffffffffffffffff1673ffffffffffffffffffffffffffffffffffffffff1681526020019081526020016000206109cd565b61089b600260008473ffffffffffffffffffffffffffffffffffffffff1673ffffffffffffffffffffffffffffffffffffffff1681526020019081526020016000206109f0565b816001600083815260200190815260200160002060006101000a81548173ffffffffffffffffffffffffffffffffffffffff021916908373ffffffffffffffffffffffffffffffffffffffff160217905550808273ffffffffffffffffffffffffffffffffffffffff168473ffffffffffffffffffffffffffffffffffffffff167fddf252ad1be2c89b69c2b068fc378daa952ba7f163c4a11628f55a4df523b3ef60405160405180910390a4505050565b600081600001549050919050565b6000806001600084815260200190815260200160002060009054906101000a900473ffffffffffffffffffffffffffffffffffffffff169050600073ffffffffffffffffffffffffffffffffffffffff168173ffffffffffffffffffffffffffffffffffffffff161415915050919050565b6109e560018260000154610a0f90919063ffffffff16565b816000018190555050565b6001816000016000828254610a059190611190565b9250508190555050565b600082821115610a54576040517f08c379a0000000000000000000000000000000000000000000000000000000008152600401610a4b90611232565b60405180910390fd5b60008284610a629190611252565b90508091505092915050565b600080fd5b60007fffffffff0000000000000000000000000000000000000000000000000000000082169050919050565b610aa881610a73565b8114610ab357600080fd5b50565b600081359050610ac581610a9f565b92915050565b600060208284031215610ae157610ae0610a6e565b5b6000610aef84828501610ab6565b91505092915050565b60008115159050919050565b610b0d81610af8565b82525050565b6000602082019050610b286000830184610b04565b92915050565b600073ffffffffffffffffffffffffffffffffffffffff82169050919050565b6000610b5982610b2e565b9050919050565b610b6981610b4e565b8114610b7457600080fd5b50565b600081359050610b8681610b60565b92915050565b6000819050919050565b610b9f81610b8c565b8114610baa57600080fd5b50565b600081359050610bbc81610b96565b92915050565b60008060408385031215610bd957610bd8610a6e565b5b6000610be785828601610b77565b9250506020610bf885828601610bad565b9150509250929050565b610c0b81610b8c565b82525050565b6000602082019050610c266000830184610c02565b92915050565b600080600060608486031215610c4557610c44610a6e565b5b6000610c5386828701610b77565b9350506020610c6486828701610b77565b9250506040610c7586828701610bad565b9150509250925092565b600060208284031215610c9557610c94610a6e565b5b6000610ca384828501610bad565b91505092915050565b610cb581610b4e565b82525050565b6000602082019050610cd06000830184610cac565b92915050565b600060208284031215610cec57610ceb610a6e565b5b6000610cfa84828501610b77565b91505092915050565b600082825260208201905092915050565b7f4572726f72202d20617070726f76616c20746f2063757272656e74206f776e6560008201527f7200000000000000000000000000000000000000000000000000000000000000602082015250565b6000610d70602183610d03565b9150610d7b82610d14565b604082019050919050565b60006020820190508181036000830152610d9f81610d63565b9050919050565b7f43757272656e742063616c6c6572206973206e6f7420746865206f776e65722060008201527f6f662074686520746f6b656e2100000000000000000000000000000000000000602082015250565b6000610e02602d83610d03565b9150610e0d82610da6565b604082019050919050565b60006020820190508181036000830152610e3181610df5565b9050919050565b7f6f776e657220696e646578206973206f7574206f6620626f756e647321000000600082015250565b6000610e6e601d83610d03565b9150610e7982610e38565b602082019050919050565b60006020820190508181036000830152610e9d81610e61565b9050919050565b7f4e487b7100000000000000000000000000000000000000000000000000000000600052603260045260246000fd5b7f476c6f62616c20696e646578206973206f7574206f6620626f756e6473210000600082015250565b6000610f09601e83610d03565b9150610f1482610ed3565b602082019050919050565b60006020820190508181036000830152610f3881610efc565b9050919050565b7f6f776e657220717565727920666f72206e6f6e2d6578697374656e7420746f6b60008201527f656e000000000000000000000000000000000000000000000000000000000000602082015250565b6000610f9b602283610d03565b9150610fa682610f3f565b604082019050919050565b60006020820190508181036000830152610fca81610f8e565b9050919050565b7f746f6b656e20646f6573206e6f74206578697374000000000000000000000000600082015250565b6000611007601483610d03565b915061101282610fd1565b602082019050919050565b6000602082019050818103600083015261103681610ffa565b9050919050565b7f4572726f72202d20455243373231205472616e7366657220746f20746865207a60008201527f65726f2061646472657373000000000000000000000000000000000000000000602082015250565b6000611099602b83610d03565b91506110a48261103d565b604082019050919050565b600060208201905081810360008301526110c88161108c565b9050919050565b7f547279696e6720746f207472616e73666572206120746f6b656e20746865206160008201527f64647265737320646f6573206e6f74206f776e21000000000000000000000000602082015250565b600061112b603483610d03565b9150611136826110cf565b604082019050919050565b6000602082019050818103600083015261115a8161111e565b9050919050565b7f4e487b7100000000000000000000000000000000000000000000000000000000600052601160045260246000fd5b600061119b82610b8c565b91506111a683610b8c565b9250827fffffffffffffffffffffffffffffffffffffffffffffffffffffffffffffffff038211156111db576111da611161565b5b828201905092915050565b7f536166654d6174683a20737562737472616374696f6e204f766572666c6f7700600082015250565b600061121c601f83610d03565b9150611227826111e6565b602082019050919050565b6000602082019050818103600083015261124b8161120f565b9050919050565b600061125d82610b8c565b915061126883610b8c565b92508282101561127b5761127a611161565b5b82820390509291505056fea2646970667358221220255b95ec99cb2f81ab01551f74483df5632e1c6305f0687cc1fa8888ada4918764736f6c634300080c0033",
  "immutableReferences": {},
  "source": "// SPDX-License-Identifier: MIT\npragma solidity ^0.8.0;\n\n\n// contract imports\nimport './ERC721.sol';\n\nimport './interfaces/IERC721Enumerable.sol';\n\n\ncontract ERC721Enumerable is IERC721Enumerable, ERC721 {\n\n    uint256[] private _allTokens;\n\n    // mapping from tokenId to position in _allTokens array\n    mapping(uint256 => uint256) private _allTokensIndex;\n    // mapping of owner to list of all owner token ids\n    mapping(address => uint256[]) private _ownedTokens;\n    // mapping from token ID index of the owner tokens list\n    mapping(uint256 => uint256) private _ownerTokensIndex;\n\n    constructor() {\n        _registerInterface(bytes4(keccak256('totalSupply(bytes4)')^\n        keccak256('tokenByIndex(bytes4)')^keccak256('tokenOfOwnerByIndex(bytes4)')));\n    }\n\n\n\n    //function tokenByIndex(uint256 _index) external view returns (uint256);\n\n\n    //function tokenOfOwnerByIndex(address _owner, uint256 _index) external view returns (uint256);\n    \n    function _mint(address to, uint256 tokenId) internal override(ERC721) {\n        super._mint(to, tokenId); \n        // 2 things! A. add tokens to the owner\n        // B. all tokens to our totalsupply - to allTokens\n\n        _addTokenToAllEnumeration(tokenId);\n        _addTokensToOwnerEnumeration(to, tokenId);\n    }\n\n    // add tokens to the _alltokens array and set the positin of the tokens indexes\n    function _addTokenToAllEnumeration(uint256 tokenId) private {\n        _allTokensIndex[tokenId] = _allTokens.length;\n        _allTokens.push(tokenId);\n    }\n    \n    function _addTokensToOwnerEnumeration(address to, uint256 tokenId) private {\n        // Exercise - challenge - DO these three things:\n        // 1. add address and token ID to the _ownToken\n        // 2. ownedTokensIndex tokenId set to address of ownedTokens position\n        // 3. we want to execute the function with minting\n        // 4. bonus is to compile and test\n        _allTokensIndex[tokenId] = _ownedTokens[to].length;\n        _ownedTokens[to].push(tokenId);\n\n    }\n\n\n    // two functions - one that returns tokenByIndex and\n    // another on that returns tokenOfOwnerByIndex\n\n    function tokenByIndex(uint256 index) public override view returns(uint) {\n        // make sure the index is not out of bounds of the \n        // total supply\n\n        require(index < totalSupply(), 'Global index is out of bounds!');\n        return _allTokens[index];\n    }\n\n    function tokenOfOwnerByIndex(address owner, uint index) public override view returns(uint256) {\n        require(index < balanceOf(owner), 'owner index is out of bounds!');\n        return _ownedTokens[owner][index];\n    }\n\n    \n    \n    // returns the supply to allTokens\n    function totalSupply() public override view returns(uint256) {\n        return _allTokens.length;\n    }\n}",
  "sourcePath": "/home/rtonycloud/Documents/blockchain/nft-kryptobirdz/src/contracts/ERC721Enumerable.sol",
  "compiler": {
    "name": "solc",
    "version": "0.8.12+commit.f00d7308.Emscripten.clang"
  },
  "schemaVersion": "3.4.3",
  "updatedAt": "2022-03-05T10:18:46.105Z",
  "devdoc": {
    "kind": "dev",
    "methods": {
      "ownerOf(uint256)": {
        "details": "NFTs assigned to zero address are considered invalid, and queries  about them do throw.",
        "params": {
          "_tokenId": "The identifier for an NFT"
        },
        "returns": {
          "_0": "The address of the owner of the NFT"
        }
      },
      "supportsInterface(bytes4)": {
        "details": "Interface identification is specified in ERC-165. This function  uses less than 30,000 gas.",
        "params": {
          "interfaceID": "The interface identifier, as specified in ERC-165"
        },
        "returns": {
          "_0": "`true` if the contract implements `interfaceID` and  `interfaceID` is not 0xffffffff, `false` otherwise"
        }
      }
    },
    "version": 1
  },
  "userdoc": {
    "kind": "user",
    "methods": {
      "ownerOf(uint256)": {
        "notice": "Find the owner of an NFT"
      },
      "supportsInterface(bytes4)": {
        "notice": "Query if a contract implements an interface"
      }
    },
    "version": 1
  }
}