{
  "contractName": "Kryptobird",
  "abi": [
    {
      "inputs": [],
      "stateMutability": "nonpayable",
      "type": "constructor"
    },
    {
      "anonymous": false,
      "inputs": [
        {
          "indexed": false,
          "internalType": "address",
          "name": "from",
          "type": "address"
        },
        {
          "indexed": false,
          "internalType": "address",
          "name": "to",
          "type": "address"
        },
        {
          "indexed": false,
          "internalType": "uint256",
          "name": "tokenId",
          "type": "uint256"
        }
      ],
      "name": "Transfer",
      "type": "event"
    },
    {
      "inputs": [
        {
          "internalType": "uint256",
          "name": "",
          "type": "uint256"
        }
      ],
      "name": "kryptoBirdz",
      "outputs": [
        {
          "internalType": "string",
          "name": "",
          "type": "string"
        }
      ],
      "stateMutability": "view",
      "type": "function",
      "constant": true
    },
    {
      "inputs": [],
      "name": "name",
      "outputs": [
        {
          "internalType": "string",
          "name": "",
          "type": "string"
        }
      ],
      "stateMutability": "view",
      "type": "function",
      "constant": true
    },
    {
      "inputs": [],
      "name": "symbol",
      "outputs": [
        {
          "internalType": "string",
          "name": "",
          "type": "string"
        }
      ],
      "stateMutability": "view",
      "type": "function",
      "constant": true
    },
    {
      "inputs": [
        {
          "internalType": "string",
          "name": "_kryptoBird",
          "type": "string"
        }
      ],
      "name": "mint",
      "outputs": [],
      "stateMutability": "nonpayable",
      "type": "function"
    }
  ],
  "bytecode": "0x60806040523480156200001157600080fd5b506040518060400160405280600a81526020017f4b727970746f42697264000000000000000000000000000000000000000000008152506040518060400160405280600681526020017f4b424952445a00000000000000000000000000000000000000000000000000008152508181816000908051906020019062000098929190620000bc565b508060019080519060200190620000b1929190620000bc565b5050505050620001d1565b828054620000ca906200019b565b90600052602060002090601f016020900481019282620000ee57600085556200013a565b82601f106200010957805160ff19168380011785556200013a565b828001600101855582156200013a579182015b82811115620001395782518255916020019190600101906200011c565b5b5090506200014991906200014d565b5090565b5b80821115620001685760008160009055506001016200014e565b5090565b7f4e487b7100000000000000000000000000000000000000000000000000000000600052602260045260246000fd5b60006002820490506001821680620001b457607f821691505b60208210811415620001cb57620001ca6200016c565b5b50919050565b610ccd80620001e16000396000f3fe608060405234801561001057600080fd5b506004361061004c5760003560e01c806306fdde031461005157806393ab6e561461006f57806395d89b411461009f578063d85d3d27146100bd575b600080fd5b6100596100d9565b60405161006691906106fc565b60405180910390f35b61008960048036038101906100849190610768565b61016b565b60405161009691906106fc565b60405180910390f35b6100a7610217565b6040516100b491906106fc565b60405180910390f35b6100d760048036038101906100d291906108ca565b6102a9565b005b6060600080546100e890610942565b80601f016020809104026020016040519081016040528092919081815260200182805461011490610942565b80156101615780601f1061013657610100808354040283529160200191610161565b820191906000526020600020905b81548152906001019060200180831161014457829003601f168201915b5050505050905090565b6004818154811061017b57600080fd5b90600052602060002001600091509050805461019690610942565b80601f01602080910402602001604051908101604052809291908181526020018280546101c290610942565b801561020f5780601f106101e45761010080835404028352916020019161020f565b820191906000526020600020905b8154815290600101906020018083116101f257829003601f168201915b505050505081565b60606001805461022690610942565b80601f016020809104026020016040519081016040528092919081815260200182805461025290610942565b801561029f5780601f106102745761010080835404028352916020019161029f565b820191906000526020600020905b81548152906001019060200180831161028257829003601f168201915b5050505050905090565b6005816040516102b991906109b0565b908152602001604051809103902060009054906101000a900460ff1615610315576040517f08c379a000000000000000000000000000000000000000000000000000000000815260040161030c90610a39565b60405180910390fd5b6004819080600181540180825580915050600190039060005260206000200160009091909190915090805190602001906103509291906105c0565b50600060016004805490506103659190610a88565b905061037133826103ac565b600160058360405161038391906109b0565b908152602001604051809103902060006101000a81548160ff0219169083151502179055505050565b600073ffffffffffffffffffffffffffffffffffffffff168273ffffffffffffffffffffffffffffffffffffffff16141561041c576040517f08c379a000000000000000000000000000000000000000000000000000000000815260040161041390610b2e565b60405180910390fd5b6104258161054e565b15610465576040517f08c379a000000000000000000000000000000000000000000000000000000000815260040161045c90610b9a565b60405180910390fd5b816002600083815260200190815260200160002060006101000a81548173ffffffffffffffffffffffffffffffffffffffff021916908373ffffffffffffffffffffffffffffffffffffffff1602179055506001600360008473ffffffffffffffffffffffffffffffffffffffff1673ffffffffffffffffffffffffffffffffffffffff16815260200190815260200160002060008282546105079190610bba565b925050819055507fddf252ad1be2c89b69c2b068fc378daa952ba7f163c4a11628f55a4df523b3ef6000838360405161054293929190610c60565b60405180910390a15050565b6000806002600084815260200190815260200160002060009054906101000a900473ffffffffffffffffffffffffffffffffffffffff169050600073ffffffffffffffffffffffffffffffffffffffff168173ffffffffffffffffffffffffffffffffffffffff161415915050919050565b8280546105cc90610942565b90600052602060002090601f0160209004810192826105ee5760008555610635565b82601f1061060757805160ff1916838001178555610635565b82800160010185558215610635579182015b82811115610634578251825591602001919060010190610619565b5b5090506106429190610646565b5090565b5b8082111561065f576000816000905550600101610647565b5090565b600081519050919050565b600082825260208201905092915050565b60005b8381101561069d578082015181840152602081019050610682565b838111156106ac576000848401525b50505050565b6000601f19601f8301169050919050565b60006106ce82610663565b6106d8818561066e565b93506106e881856020860161067f565b6106f1816106b2565b840191505092915050565b6000602082019050818103600083015261071681846106c3565b905092915050565b6000604051905090565b600080fd5b600080fd5b6000819050919050565b61074581610732565b811461075057600080fd5b50565b6000813590506107628161073c565b92915050565b60006020828403121561077e5761077d610728565b5b600061078c84828501610753565b91505092915050565b600080fd5b600080fd5b7f4e487b7100000000000000000000000000000000000000000000000000000000600052604160045260246000fd5b6107d7826106b2565b810181811067ffffffffffffffff821117156107f6576107f561079f565b5b80604052505050565b600061080961071e565b905061081582826107ce565b919050565b600067ffffffffffffffff8211156108355761083461079f565b5b61083e826106b2565b9050602081019050919050565b82818337600083830152505050565b600061086d6108688461081a565b6107ff565b9050828152602081018484840111156108895761088861079a565b5b61089484828561084b565b509392505050565b600082601f8301126108b1576108b0610795565b5b81356108c184826020860161085a565b91505092915050565b6000602082840312156108e0576108df610728565b5b600082013567ffffffffffffffff8111156108fe576108fd61072d565b5b61090a8482850161089c565b91505092915050565b7f4e487b7100000000000000000000000000000000000000000000000000000000600052602260045260246000fd5b6000600282049050600182168061095a57607f821691505b6020821081141561096e5761096d610913565b5b50919050565b600081905092915050565b600061098a82610663565b6109948185610974565b93506109a481856020860161067f565b80840191505092915050565b60006109bc828461097f565b915081905092915050565b7f4572726f72202d206b727970746f4269726420616c726561647920657869737460008201527f7300000000000000000000000000000000000000000000000000000000000000602082015250565b6000610a2360218361066e565b9150610a2e826109c7565b604082019050919050565b60006020820190508181036000830152610a5281610a16565b9050919050565b7f4e487b7100000000000000000000000000000000000000000000000000000000600052601160045260246000fd5b6000610a9382610732565b9150610a9e83610732565b925082821015610ab157610ab0610a59565b5b828203905092915050565b7f4552433732313a206d696e74696e6720746f20746865207a65726f206164647260008201527f6573730000000000000000000000000000000000000000000000000000000000602082015250565b6000610b1860238361066e565b9150610b2382610abc565b604082019050919050565b60006020820190508181036000830152610b4781610b0b565b9050919050565b7f4552433732313a20746f6b656e20616c65616479206d696e7465640000000000600082015250565b6000610b84601b8361066e565b9150610b8f82610b4e565b602082019050919050565b60006020820190508181036000830152610bb381610b77565b9050919050565b6000610bc582610732565b9150610bd083610732565b9250827fffffffffffffffffffffffffffffffffffffffffffffffffffffffffffffffff03821115610c0557610c04610a59565b5b828201905092915050565b600073ffffffffffffffffffffffffffffffffffffffff82169050919050565b6000610c3b82610c10565b9050919050565b610c4b81610c30565b82525050565b610c5a81610732565b82525050565b6000606082019050610c756000830186610c42565b610c826020830185610c42565b610c8f6040830184610c51565b94935050505056fea26469706673582212206ac78a9cfab84a4debbf4799ad8a5467275e200ddfc6491d050b7073c46942f164736f6c634300080b0033",
  "immutableReferences": {},
  "source": "// SPDX-License-Identifier: MIT\npragma solidity ^0.8.0;\n\nimport './ERC721Connector.sol';\n\ncontract Kryptobird is ERC721Connector {\n\n        // array to store our NFTs\n        string[] public kryptoBirdz;\n\n        mapping(string => bool) _kryptoBirdzExists;\n\n        function mint(string memory _kryptoBird) public {\n\n            require(!_kryptoBirdzExists[_kryptoBird],\n            'Error - kryptoBird already exists');\n            // this function is deprecated - uint _id = KryptoBirdz.push(_kryptoBird);\n            kryptoBirdz.push(_kryptoBird);\n            uint _id = kryptoBirdz.length - 1;\n\n            //.push() no longer returns the length but a ref to the added element\n\n            \n            _mint(msg.sender, _id);\n\n\n            _kryptoBirdzExists[_kryptoBird] = true; \n        \n        \n        }\n\n\n\n    constructor() ERC721Connector('KryptoBird', 'KBIRDZ') {\n    {}\n    }\n    \n}\n\n",
  "sourcePath": "/home/rtonycloud/Documents/blockchain/nft-kryptobirdz/src/contracts/KryptoBirdz.sol",
  "compiler": {
    "name": "solc",
    "version": "0.8.11+commit.d7f03943.Emscripten.clang"
  },
  "schemaVersion": "3.4.3",
  "updatedAt": "2022-01-14T00:32:42.711Z",
  "networkType": "ethereum",
  "devdoc": {
    "kind": "dev",
    "methods": {},
    "version": 1
  },
  "userdoc": {
    "kind": "user",
    "methods": {},
    "version": 1
  }
}